:020000040800F2
:1000000000500020410800089108000891080008ED
:1000100091080008910800089108000800000000FD
:10002000000000000000000000000000910800082F
:1000300091080008000000009108000891080008DD
:10004000910800089108000891080008910800082C
:10005000910800089108000891080008910800081C
:10006000910800089108000891080008910800080C
:1000700091080008910800089108000891080008FC
:1000800091080008910800089108000891080008EC
:1000900091080008910800089108000891080008DC
:1000A00091080008910800089108000891080008CC
:1000B00091080008910800089108000891080008BC
:1000C00091080008910800089108000891080008AC
:1000D00091080008BD070008910800089108000871
:1000E000910800089108000800000000910800082D
:1000F000910800089108000891080008910800087C
:10010000910800089108000891080008910800086B
:10011000910800089108000891080008910800085B
:10012000910800089108000891080008910800084B
:1001300010B5054C237833B9044B13B10448AFF321
:1001400000800123237010BDA400002000000000E7
:100150000815000808B5034B1BB103490348AFF36A
:10016000008008BD00000000A8000020081500085D
:10017000034613F8012B002AFBD1181A01387047E7
:1001800080B483B000AF786020E07B681B78432B9D
:1001900005D1134B9B69124A43F0100393617B68AE
:1001A0001B78422B05D10E4B9B690D4A43F0080387
:1001B00093617B681B78412B05D1094B9B69084AE9
:1001C00043F0040393617B6801337B607B681B7899
:1001D000002BDAD100BF00BF0C37BD4680BC704792
:1001E0000010024080B483B000AF78600B46FB7013
:1001F0001346BB70FB78072B17D97B685B68FA78CE
:10020000083A92000F2101FA02F2D2431A407B68A9
:100210005A607B685B68B978FA78083A920001FA0C
:1002200002F21A437B685A6014E07B681B68FA7814
:1002300092000F2101FA02F2D2431A407B681A6041
:100240007B681B68B978FA78920001FA02F21A43C7
:100250007B681A6000BF0C37BD4680BC70470FB486
:1002600080B582B000AF07F114033B603B681A1DF4
:100270003A601B68FB710FE03B681A1D3A601B680F
:10028000BB71BA79FB7919463869FFF7ABFF3B6858
:100290001A1D3A601B68FB71FB79FF2BECD100BF84
:1002A00000BF0837BD46BDE8804004B0704700007D
:1002B00080B400AF074B9B69064A43F0010393618A
:1002C000054B5B68044A43F0E063536000BFBD46E2
:1002D00080BC7047001002400000014080B400AFB5
:1002E0002B4B1B682A4A43F48033136000BF284B12
:1002F0001B6803F40033002BF9D0254BDB69244A3B
:1003000043F08053D361234B1B68224A43F012030E
:10031000136000BF1F4B1B6803F02003002BF9D0B4
:100320001B4B5B681A4A43F480335360184B5B687D
:10033000174A43F4E0135360154B5B68144A43F4C7
:1003400080635360124B5B68114A43F4404353602F
:100350000F4B1B680E4A43F08073136000BF0C4BB9
:100360001B6803F00073002BF9D0094B5B68084A47
:1003700043F00203536000BF054B5B6803F00803C2
:10038000002BF9D000BF00BFBD4680BC704700BF46
:10039000001002400020024080B483B000AF03464A
:1003A0003960FB80114BDB69104A43F00103D361D4
:1003B0004FF08042FB8893624FF080423B68D362EB
:1003C0004FF080431B684FF0804243F001031360FD
:1003D00000BF4FF080431B6903F00103002BF8D0EE
:1003E00000BF00BF0C37BD4680BC70470010024004
:1003F00080B483B000AF0346FB804FF080430022FF
:100400005A6200BF4FF080435A6AFB889A42F9D380
:1004100000BF00BF0C37BD4680BC704780B582B0BE
:1004200000AF0346FB8003E04FF47A70FFF7E0FF74
:10043000FB885A1EFA80002BF6D100BF00BF083798
:10044000BD4680BD80B483B000AF0346FB7197F911
:100450000730002B0BDBFB7903F01F02064997F9ED
:1004600007305B09012000FA02F241F8232000BFA7
:100470000C37BD4680BC704700E100E080B483B01B
:1004800000AF03463960FB7197F90730002B0ADB98
:100490003B68DAB20C4997F907301201D2B20B442B
:1004A00083F800230AE03B68DAB20849FB7903F0DD
:1004B0000F03043B1201D2B20B441A7600BF0C3773
:1004C000BD4680BC704700BF00E100E000ED00E0E9
:1004D00080B500AF234B9B69224A43F4804393616C
:1004E000214B5B68204A23F0F00353601E4B5B688E
:1004F0001D4A43F0B00353601B4B5B681A4A23F458
:1005000070635360184B5B68174A43F48063536011
:10051000154B1B68144A23F470431360124B1B687D
:10052000114A43F400531360104B9B680F4A43F485
:100530001C7343F0010393600C4BDB680B4A43F0E0
:100540002C03D3602520FFF77DFF01212520FFF735
:1005500095FF064BDB68054A43F40053D36000BFA8
:1005600080BD00BF0010024000080140003801407B
:1005700080B483B000AF78600DE000BF0E4B1B6805
:1005800003F08003002BF9D07B681A780A4B5A607D
:100590007B6801337B607B681B78002BEDD100BF4B
:1005A000054B1B6803F04003002BF9D000BF00BFD0
:1005B0000C37BD4680BC70470038014080B590B014
:1005C00006AFFFF775FEFFF789FE7148FFF7D8FD0C
:1005D0004FF6FF714720FFF7DFFEFFF779FFFF239C
:1005E0000593012304930F230393012302930E2306
:1005F0000193012300930D2301220C216548FFF78D
:100600002EFEFF230593012304930B230393012361
:1006100002930A2301930123009309230122082155
:100620005C48FFF71CFE5C4B1B687B625B4B1B68E6
:100630003B625B48FFF79CFF5A4B1B78DBB2002BF9
:10064000FAD00023FB610023BB6107F1100107F121
:1006500014023B1D029307F10803019307F10C03F9
:1006600000930B465049514800F024FA7B69002B57
:1006700006D1BB68002B03D16420FFF7CFFE00E05A
:1006800000BF7B69002B1EDD434B1B68484A52F8B4
:10069000232048493B6A51F823303E491343CB603D
:1006A0003D4B1B687B623C4B1A683B6913445A42C2
:1006B00003F0070302F0070258BF5342364A1360A3
:1006C000FB690133FB61FB68002B1EDD334B1B68AC
:1006D000384A52F8232036497B6A51F823302D4995
:1006E0001343CB602D4B1B683B622C4B1A68BB68D5
:1006F00013445A4203F0070302F0070258BF534263
:10070000264A1360BB690133BB61234B1B68002B76
:1007100002DA214B07221A60204B1B68002B02DAF9
:100720001E4B07221A607B69002B09DCFB68002B3B
:1007300006DC1C4B00221A701948FFF719FF7BE7F3
:10074000F9691D4B83FB01231A11CB17D21A1346EB
:100750009B001344DB00CA1A272A02D17B69013BA4
:100760007B61B969144B83FB01231A11CB17D21A91
:1007700013469B001344DB00CA1A272A02D1FB68E8
:10078000013BFB6040F2DC50FFF732FE79E700BF2F
:1007900020150008000C0140C0000020C40000200B
:1007A00024150008DF00002028150008CC000020D8
:1007B00000000020200000206766666680B483B0D9
:1007C00000AF174B1B6803F02003002B23D0144B02
:1007D0005B68FB71FB79782B12D1124B1B78DBB273
:1007E0001A46114B002199540E4B00221A700F4BE0
:1007F00001221A700E4B1B6801330D4A13600AE088
:10080000084B1B78DBB25A1CD1B2064A117019464C
:10081000054AFB79535400BF0C37BD4680BC704776
:1008200000380140DE000020CC000020DF00002066
:10083000C800002080B400AF00BFBD4680BC704738
:100840000D488546FFF7F6FF0C480D490D4A002379
:1008500002E0D458C4500433C4188C42F9D30A4A75
:100860000A4C002301E013600432A242FBD300F0E3
:1008700011F8FFF7A3FEFEE7005000200000002063
:10088000A4000020CC160008A4000020F4000020E2
:10089000FEE7000070B500260C4D0D4C641BA41043
:1008A000A64209D100F030FE00260A4D0A4C641B16
:1008B000A410A64205D170BD55F8043B98470136F7
:1008C000EEE755F8043B98470136F2E7C4160008F6
:1008D000C4160008C4160008C816000838B5054636
:1008E000002940D051F8043C0C1F002BB8BFE4187D
:1008F00000F01AF91C4A136833B963601460284683
:10090000BDE8384000F016B9A34208D92068211884
:100910008B4201BF19685B6809182160EDE71A4630
:100920005B680BB1A342FAD911685018A0420BD1F1
:1009300020680144501883421160E0D118685B6858
:10094000014411605360DAE702D90C232B60D6E72B
:10095000206821188B4201BF19685B680918216063
:1009600063605460CBE738BDE000002070B50E4EE8
:100970000C463168054611B900F08CF8306021460C
:10098000284600F087F8431C0AD0C41C24F0030456
:10099000A04207D0211A284600F07CF8013001D18E
:1009A0004FF0FF34204670BDE40000202DE9F041F7
:1009B000CD1C25F0030508350C2D38BF0C25002D66
:1009C000074601DBA94205D90C2300263B603046CF
:1009D000BDE8F0812E4E00F0A7F833681C4634BB0A
:1009E00029463846FFF7C2FF431C04464DD1346800
:1009F0002646002E40D123683146384604EB0308D2
:100A000000F048F880453AD1216803356D1A25F089
:100A1000030508350C2D38BF0C2538462946FFF74D
:100A2000A5FF01302BD023682B4423600EE0226801
:100A3000521B1ED40B2A16D96119A342256018BF78
:100A40005960636808BF316062514B60384604F1F9
:100A50000B0600F06FF826F00706231DF21AB6D039
:100A60009B1BA350B3E76268A3420CBF32605A607D
:100A7000ECE723466468B2E734467668B9E70C23AE
:100A800038463B6000F056F8A1E72560DEE700BF7E
:100A9000E000002038B50023054D044608462B60D1
:100AA00000F024FD431C02D12B6803B1236038BD44
:100AB000E80000200EB44FF4017230B59CB01FACBA
:100AC00054F8045BADF8142002900690FFF750FB39
:100AD0000B4B03900B9300230F9314934FF6FF736C
:100AE00007900848ADF816302A46234602A9006848
:100AF000019400F07FF81CB0BDE8304003B07047AF
:100B0000090B000840000020002070470A44914271
:100B100000F1FF3300D1704710B511F8014B91423D
:100B200003F8014FF9D110BD014800F097BC00BF98
:100B3000EC000020014800F092BC00BFEC00002057
:100B400038B54B1C144603D14FF0FF35284638BD4D
:100B50009389CDB223F020039381636B52688BB1EC
:100B6000A36B934208DD23685A1E226003F8015CE0
:100B7000636801336360E9E7214600F031FC002837
:100B8000F1D0E1E72169236851B1994208D213F805
:100B9000011CA94204D1013B013223606260D5E708
:100BA000C4E90F3204F1440363630323A3632346C0
:100BB00003F8465F23600123DCE710B50C46496B60
:100BC00069B104F14403994201D0FFF787FE002088
:100BD000236C6063636013B1E36B236010BD236912
:100BE0004FF0FF30236000236360A38943F02003AC
:100BF000A381F3E72DE9F0470C4600210646ADF549
:100C0000227DCDE94411A7490DF10408A091A64920
:100C1000A64FDFF89C92CDF81881A191009313782C
:100C2000002B00F05C81D95D551C11F0080119D032
:100C30006368002B0FDD23681A78BA5C120701D4B1
:100C40002A46ECE7459A01330132459262682360F7
:100C5000013A6260ECE721463046A19B98470028A4
:100C6000E9D0EDE7252B12D09A466368002B40F3BC
:100C7000948022681378534540F0318163680132D3
:100C8000013B6360459B226001334593D8E7419166
:100C9000439153782A2B04BF1023951C4FF00A026E
:100CA00008BF4193AA461AF8011BA1F13003092B92
:100CB0001DD903227E4800F0D3FB40B101235546E5
:100CC000A0EB090003FA00F0419B1843419015F88E
:100CD000013B782B06D8572B10D8252BC4D057D8DA
:100CE000002B65D0032347930A23429372E0439B72
:100CF000554602FB031130394391D3E7A3F1580263
:100D0000202AEFD801A151F822F000BFBF0D000842
:100D1000E50C0008E50C00081D0E0008E50C0008B5
:100D2000E50C0008E50C0008E50C0008E50C0008DF
:100D3000E50C0008E50C0008330E0008090E000859
:100D4000970D0008970D0008970D0008E50C0008A6
:100D50000D0E0008E50C0008E50C0008E50C000885
:100D6000E50C0008430E0008150E0008B70D00083A
:100D7000E50C0008E50C00083F0E0008E50C000833
:100D8000090E0008E50C0008E50C0008BF0D00087E
:100D9000453B022BA6D805231BE021463046A19BEC
:100DA000984700283FF465AF4498002840F08D80B4
:100DB0004FF0FF308FE0419A42F020024192419A79
:100DC00042F40072419210226F2B34BF032304239C
:100DD000429247936368002B42DD419B590604D43D
:100DE00023681A78BA5C120741D4479B022B50DC67
:100DF0006B462246304641A900F076F801286ED0B5
:100E000002287FF41DAFCFE70A22DDE700234293DB
:100E10000323DEE7082342930423DAE7294640460A
:100E200000F0B4F9419B054643F040034193012390
:100E3000CFE7419B43F0400341930023C9E70223DE
:100E4000C7E74198C3063FF5FBAE009B459A191DC5
:100E500000911B6810F0010F14BF1A801A60EFE6B2
:100E600021463046A19B98470028B6D09CE7459A7A
:100E7000013245926268013A002A626002DD013364
:100E80002360ADE721463046A19B98470028A7D0B4
:100E90008AE7042B0EDC6B462246304641A900F05F
:100EA0007DF8ABE7410B0008BB0B00086415000898
:100EB000441500080B4B002B3FF4C2AE6B46224694
:100EC000304641A9AFF3008098E7A38913F0400FA3
:100ED00018BF4FF0FF300DF5227DBDE8F087449834
:100EE000F9E700BF000000002DE9F84315468A68C5
:100EF00080460C4632B98A69002A0CBF01224FF0A5
:100F0000FF328A6000272268DFF88C90D1065FBF2D
:100F10001A68111D19601668A06988B1012807D1E7
:100F20002B681A7863699B5C53B9002F31D022E09B
:100F3000022820D12B681B7813F809301B071AD41C
:100F400023680137DA065EBF2B681B7806F8013B81
:100F50002A686B6801322A60A268013B013A6B6023
:100F6000A26042B1002BD7DC29464046D4F880313C
:100F700098470028D0D0236813F0100305D1E26809
:100F80000132E260A26902B13370002023693B4460
:100F90002361BDE8F88300BF641500082DE9F04F18
:100FA0000C469846754B87B08246164693E8070074
:100FB00003AB83E80700724BA169724A27460329F5
:100FC00018BF1A46A36801925A1EB2F5AE7F81BFC0
:100FD0006FF4AE7503EB050940F25D13A36057F89B
:100FE0001C3B98BF4FF000093D464FF0000B43F407
:100FF00050632360316803AB0222097853F82B0059
:1010000000F02EFA28B3BBF1010F59D162682AB95A
:1010100008232268636042F400722260226822F48E
:10102000A0622260A268511EA16092B13268511C78
:101030003160127805F8012B7268013A002A72605B
:1010400007DC31465046D4F880219047002840F014
:1010500085800BF1010BBBF1030FCBD163680BB99A
:101060000A236360636848496069C91A00F08EF812
:101070004FF0000BA3682268002B3DD031686069F7
:1010800091F800C010F80C00002835D0BCF1300FEA
:1010900024D1100522D50BF1010BB9F1000F03D0BB
:1010A000013309F1FF39A3607368013B002B7360C2
:1010B0001BDD336801333360A368013BA360D9E7CC
:1010C000BBF1020FAED1226802F4C061B1F5007F1E
:1010D000BFD1102342F480726360A2E722F4106251
:1010E00022600B7805F8013BDEE731465046D4F824
:1010F000803198470028DFD02368DB050DD5BD423D
:1011000009D915F8011C32465046D4F87C3105F156
:10111000FF3998474D46BD422DD0226812F010028B
:1011200013D12A70394663685046019EB047216842
:10113000D8F8003011F0200F13D01A1DC8F8002085
:101140001B681860E3680133E3600020ED1BAB44CB
:1011500025695D44256107B0BDE8F08F4FF0000BB5
:10116000CAE71A1DC8F800201B6811F0010F14BF50
:1011700018801860E6E70120EDE700BF3815000889
:10118000DD130008F51200086115000870B50B7832
:1011900004465E2B13BF002201224B78481C08BF77
:1011A000881C04F1FF05611E01F8012FA942FBD143
:1011B0000BB9013870BD82F001020546E2542846A1
:1011C00010F8011B2D2906D05D29F3D009B9284656
:1011D000F0E70B46F1E76E785D2EFAD0B342F8DC0B
:1011E0001946023501318E426254FBDCF11A013995
:1011F000B342A8BF0021581C4318E0E7012B2DE99A
:10120000F047804601D0242B06D900F021F916239F
:1012100003600020BDE8F0870D46354F284615F8DD
:10122000014BE65D16F00806F8D12D2C2FD10126D2
:101230002C78851C002B57D0102B09D1302C07D1CE
:10124000287800F0DF00582849D110236C78023547
:10125000002706F1004E0EF1FF3EBEFBF3F93846C3
:1012600003FB19EAA4F1300CBCF1090F14D8644651
:10127000A34222DD002F1DDB81451BD301D1A245F6
:1012800018DB012700FB034015F8014BEAE72B2C84
:1012900004BF2C78851CCDE7A4F1410CBCF1190FDB
:1012A00001D8373CE4E7A4F1610CBCF1190F04D874
:1012B000573CDDE74FF0FF37E6E7002F07DA222340
:1012C0007046C8F80030002AA4D0691E05E006B1B7
:1012D0004042002A9ED0002FF7D111609AE73024B7
:1012E000002BB5D10823B3E7302CA9D00A23AFE7F0
:1012F00064150008FFF782BF2DE9F04386460D46CE
:10130000354F284615F8014BE65D16F00806F8D172
:101310002D2C2FD101262C78851C002B57D0102B7B
:1013200009D1302C07D1287800F0DF00582849D1A6
:1013300010236C7802354FF0FF38B8FBF3F8002724
:1013400003FB08F938466FEA0909A4F1300CBCF137
:10135000090F14D86446A34222DD002F1DDB80450F
:101360001BD301D1A14518DB012700FB034015F871
:10137000014BEAE72B2C04BF2C78851CCDE7A4F1A8
:10138000410CBCF1190F01D8373CE4E7A4F1610C22
:10139000BCF1190F04D8573CDDE74FF0FF37E6E703
:1013A000002F07DA22234FF0FF30CEF8003032B999
:1013B000BDE8F08306B14042002AF9D007B1691EAA
:1013C0001160F5E73024002BB5D10823B3E7302CAA
:1013D000A9D00A23AFE700BF64150008FFF78CBF50
:1013E0002DE9F0410C46496B04F1440399421BD1AD
:1013F0004FF48061FFF7DAFA18B94FF0FF30BDE81B
:10140000F0814FF48063A36394F84630606380F802
:10141000FF3394F8453000F2FD30437094F84430C7
:10142000037020600020EAE7A66B77003A4600F0E0
:1014300025F805460028E0D000EB060801463246B4
:101440004046FFF763FBC4E90D57C4F80080E9E7A5
:10145000014B1868704700BF40000020704770477C
:10146000034610B5C9B202449342184601D1002088
:1014700003E0047801338C42F6D110BD2DE9F04130
:10148000804614460E4621B91146BDE8F041FFF7EB
:101490008DBA2AB9FFF722FA25462846BDE8F08121
:1014A00000F01BF88442074602D8B4EB500F12D864
:1014B00021464046FFF77AFA05460028EDD0BC42A7
:1014C0002246314628BF3A46FFF720FB31464046C8
:1014D000FFF704FAE1E73546DFE751F8043C181F4F
:1014E000002BBCBF0B58C01870470000044A0346CD
:1014F000116809B90349116010680344136070470B
:10150000F0000020F8000020F8B500BFF8BC08BCCF
:101510009E467047F8B500BFF8BC08BC9E467047B1
:10152000414200006F0000002564202564202564EE
:101530002025642025640000481500084B1500088C
:101540004E150008686C4C002B2D00303000785888
:1015500000412D46612D663839303132333435360D
:10156000375D00002020202020202020202828284F
:10157000282820202020202020202020202020205B
:1015800020202020881010101010101010101010A3
:1015900010101010040404040404040404041010C3
:1015A0001010101010414141414141010101010160
:1015B000010101010101010101010101010101100C
:1015C0001010101010424242424242020202020235
:1015D00002020202020202020202020202020210DD
:1015E00010101020000000000000000000000000AB
:1015F00000000000000000000000000000000000EB
:1016000000000000000000000000000000000000DA
:1016100000000000000000000000000000000000CA
:1016200000000000000000000000000000000000BA
:1016300000000000000000000000000000000000AA
:10164000000000000000000000000000000000009A
:10165000000000000000000000000000000000008A
:10166000000000000000000000000000000000007A
:10167000000000000000000000000000000000006A
:10168000000000000000000000000000000000005A
:10169000000000000000000000000000000000004A
:1016A000000000000000000000000000000000003A
:1016B000000000000000000000000000000000002A
:0416C0000000000026
:0416C40055010008C4
:0416C80031010008E4
:1016CC000080000000C0000000400000006000002E
:1016DC00002000000030000000100000009000000E
:1016EC0000080000000C00000004000000060000D0
:1016FC0000020000000300000001000000090000CF
:10170C00440000200000000084160008A416000805
:10171C00641600080000000000000000000000003B
:10172C0000000000000000000000000000000000AD
:10173C00000000000000000000000000000000009D
:10174C00000000000000000000000000000000008D
:10175C00000000000000000000000000000000007D
:04176C000000000079
:0400000508000841A6
:00000001FF
